:100000000C942A000C9447000C9447000C94470071
:100010000C9447000C9447000C9447000C94470044
:100020000C9447000C9447000C9447000C94470034
:100030000C9447000C9447000C9447000C94470024
:100040000C9447000C9447000C9447000C94470014
:100050000C94470011241FBECFE5D8E0DEBFCDBF12
:1000600010E0A0E6B0E0E0E7F8E002C005900D92F5
:10007000AE36B107D9F720E0AEE6B0E001C01D9280
:10008000A137B207E1F70E9446020C9436040C94A3
:1000900000003E9A3F9A379A329A319A0895369ADA
:1000A000349BFECF349A84B125B190E0922B089511
:1000B000823419F118F4813439F008958334B1F1A0
:1000C000843409F44CC00895413059F42AB381E0D6
:1000D00090E002C0880F991F6A95E2F7822B8ABBD5
:1000E00008952AB381E090E002C0880F991F6A95B5
:1000F000E2F7809582238ABB0895413059F427B3F3
:1001000081E090E002C0880F991F6A95E2F7822B88
:1001100087BB089527B381E090E002C0880F991F44
:100120006A95E2F78095822387BB0895413059F4A0
:1001300024B381E090E002C0880F991F6A95E2F72E
:10014000822B84BB089524B381E090E002C0880F25
:10015000991F6A95E2F78095822384BB0895413008
:1001600059F421B381E090E002C0880F991F6A958D
:10017000E2F7822B81BB089521B381E090E002C0B9
:10018000880F991F6A95E2F78095822381BB0895B5
:10019000823419F118F4813439F008958334B1F1BF
:1001A000843409F44CC00895413059F42BB381E0F4
:1001B00090E002C0880F991F6A95E2F7822B8BBBF3
:1001C00008952BB381E090E002C0880F991F6A95D3
:1001D000E2F7809582238BBB0895413059F428B310
:1001E00081E090E002C0880F991F6A95E2F7822BA8
:1001F00088BB089528B381E090E002C0880F991F62
:100200006A95E2F78095822388BB0895413059F4BE
:1002100025B381E090E002C0880F991F6A95E2F74C
:10022000822B85BB089525B381E090E002C0880F42
:10023000991F6A95E2F78095822385BB0895413026
:1002400059F422B381E090E002C0880F991F6A95AB
:10025000E2F7822B82BB089522B381E090E002C0D6
:10026000880F991F6A95E2F78095822382BB0895D3
:100270006295607F823479F018F4813431F008950A
:10028000833479F0843499F008958BB38F708BBBED
:100290008BB3862B8BBB88B38F7088BB88B3862BC0
:1002A00088BB85B38F7085BB85B3862B85BB82B336
:1002B0008F7082BB82B3682B62BB089541E060E01F
:1002C00082E40E94C8008FE99FE00197F1F700C027
:1002D000000040E060E082E40E94C8008FE99FE0F7
:1002E0000197F1F700C000000895CF93C82F682F41
:1002F00062956F7084E40E94380140E061E082E41E
:100300000E94C8000E945E016C2F84E40E943801A4
:1003100040E061E082E40E94C8000E945E018FEC30
:1003200097E00197F1F700C00000CF9108952FEFFB
:1003300081EE94E0215080409040E1F700C0000041
:1003400041E064E084E40E94580041E065E084E418
:100350000E94580041E066E084E40E94580041E0B9
:1003600067E084E40E94580041E060E082E40E947B
:10037000580041E062E082E40E94580041E061E000
:1003800082E40E94580040E062E082E40E94C800DB
:1003900082E00E9475018FE19EE40197F1F700C0B1
:1003A000000088E20E9475018FEC97E00197F1F759
:1003B00000C000008EE00E9475018FEC97E001976D
:1003C000F1F700C0000081E00E9475018FE19EE41A
:1003D0000197F1F700C0000086E00E9475018FECE4
:1003E00097E00197F1F700C000000895CF93C82F60
:1003F000682F62956F7084E40E94380141E061E0EB
:1004000082E40E94C8000E945E016C2F84E40E9476
:10041000380141E061E082E40E94C8000E945E0170
:100420008FEC97E00197F1F700C00000CF9108959D
:10043000CF93DF93EC018881882331F021960E94CD
:10044000F60189918111FBCFDF91CF9108959FEF44
:10045000980F923070F49FEF960F903160F48130D6
:1004600019F42FE7260F08C0823031F42FEB260F46
:1004700003C020E801C020E8822F0E9475018FECA4
:1004800097E00197F1F700C00000089541E060E0B7
:1004900084E40E94580041E061E084E40E94580036
:1004A0000E9497010E94490080E690E00E94180295
:1004B0000E944F00BC0180E090E00E942C0320E0ED
:1004C00030E040E85EE30E9492030E94FD027093D8
:1004D0006F0060936E006A30710578F56DE081E021
:1004E0000E9427028EE10E94F60140916E00509119
:1004F0006F009A01ADECBCEC0E942704969587959D
:1005000096958795969587959C01220F331F880FA6
:10051000991F880F991F880F991F820F931F9A01A7
:10052000281B390BC901805D0E94F6018FED0E94E6
:10053000F60183E60E94F601BBCF6436710508F030
:10054000B7CF6DE081E00E94270220916E003091CC
:100550006F00ADECBCEC0E942704969587959695AC
:10056000879596958795805D0E94F60140916E0073
:1005700050916F009A01ADECBCEC0E942704969557
:10058000879596958795969587959C01220F331FA1
:10059000880F991F880F991F880F991F820F931F2B
:1005A0009A01281B390BC901805D0E94F6018FED6D
:1005B0000E94F60183E60E94F60180916E00909100
:1005C0006F008431910530F441E061E084E40E94E1
:1005D000C8006ECF4F9730F041E060E084E40E94A5
:1005E000C80066CF40E060E084E40E94C80040E0BC
:1005F00061E084E40E94C8005BCF0E94710388F030
:100600009F5798F0B92F9927B751B0F0E1F0660FD6
:10061000771F881F991F1AF0BA95C9F714C0B13017
:1006200091F00E948B03B1E008950C948B03672F27
:10063000782F8827B85F39F0B93FCCF38695779546
:100640006795B395D9F73EF490958095709561952F
:100650007F4F8F4F9F4F0895E89409C097FB3EF45A
:1006600090958095709561957F4F8F4F9F4F9923FF
:10067000A9F0F92F96E9BB279395F695879577957D
:100680006795B795F111F8CFFAF4BB0F11F460FF3D
:100690001BC06F5F7F4F8F4F9F4F16C0882311F095
:1006A00096E911C0772321F09EE8872F762F05C0A9
:1006B000662371F096E8862F70E060E02AF09A9544
:1006C000660F771F881FDAF7880F9695879597F939
:1006D000089557FD9058440F551F59F05F3F71F032
:1006E0004795880F97FB991F61F09F3F79F0879599
:1006F0000895121613061406551FF2CF4695F1DF22
:1007000008C0161617061806991FF1CF86957105B1
:10071000610508940895E894BB2766277727CB01E5
:1007200097F908950E94A5030C9416040E940804EA
:1007300038F00E940F0420F0952311F00C94FF0371
:100740000C94050411240C948C030E94690370F32B
:10075000959FC1F3950F50E0551F629FF001729F66
:10076000BB27F00DB11D639FAA27F00DB11DAA1F75
:10077000649F6627B00DA11D661F829F2227B00DC2
:10078000A11D621F739FB00DA11D621F839FA00D4D
:10079000611D221F749F3327A00D611D231F849F9D
:1007A000600D211D822F762F6A2F11249F575040F4
:1007B0009AF0F1F088234AF0EE0FFF1FBB1F661F6F
:1007C000771F881F91505040A9F79E3F510580F038
:1007D0000C94FF030C948C035F3FE4F3983ED4F336
:1007E000869577956795B795F795E7959F5FC1F7DC
:1007F000FE2B880F911D9695879597F9089597F987
:100800009F6780E870E060E008959FEF80EC0895B6
:1008100000240A94161617061806090608950024DF
:100820000A9412161306140605060895092E039459
:10083000000C11F4882352F0BB0F40F4BF2B11F4CD
:1008400060FF04C06F5F7F4F8F4F9F4F0895A29F3F
:10085000B001B39FC001A39F700D811D1124911D94
:10086000B29F700D811D1124911D0895F894FFCF42
:0E08700074656D70657261747572653D00008F
:00000001FF
